:1000000009C016C015C014C013C012C011C010C062
:100010000FC00EC011241FBECFE9CDBF20E0A0E667
:10002000B0E001C01D92A436B207E1F727D098C016
:10003000E7CF83E087B9C39AC498BC9A00C000C0D8
:100040000000BC9882E287B986B1806586B9349B8E
:10005000FECF95B183E087B9C398C49ABC9A00C01B
:1000600000C00000BC98C49882E287B986B1806560
:1000700086B9349BFECF85B1891B089583E88FBD77
:1000800081E083BF87BB80E888B99FE194BB86B9D4
:10009000BB9ACFDF109262008093630010926100E0
:1000A00000E010E4EE24E39470E1F72EC0E0D0E02D
:1000B000C0DFC80FD11D44E04A95F1F70000FA9463
:1000C000F110F6CF80916200909163009C0164E092
:1000D000369527956A95E1F7AE01421B530B9A01BD
:1000E0004091610041111CC02734310534F0E09289
:1000F0006100109260000E2531C09C0146E03695EB
:1001000027954A95E1F7821B930BD695C795D6950F
:10011000C795C80FD91FD0936300C09362001EC05B
:100120002E3131051CF41092610018C080916000DE
:100130008F3F31F47EDF10926200809363000EC027
:100140008F5F80936000002321F0143C30F41F5F28
:1001500004C0112319F0115001C001E016BFA4CF53
:04016000F894FFCF41
:00000001FF
